{
  "_format": "hh-sol-artifact-1",
  "contractName": "MilkToken",
  "sourceName": "contracts/MilkToken.sol",
  "abi": [
    {
      "inputs": [],
      "stateMutability": "nonpayable",
      "type": "constructor"
    },
    {
      "anonymous": false,
      "inputs": [
        {
          "indexed": true,
          "internalType": "address",
          "name": "owner",
          "type": "address"
        },
        {
          "indexed": true,
          "internalType": "address",
          "name": "approved",
          "type": "address"
        },
        {
          "indexed": true,
          "internalType": "uint256",
          "name": "tokenId",
          "type": "uint256"
        }
      ],
      "name": "Approval",
      "type": "event"
    },
    {
      "anonymous": false,
      "inputs": [
        {
          "indexed": true,
          "internalType": "address",
          "name": "owner",
          "type": "address"
        },
        {
          "indexed": true,
          "internalType": "address",
          "name": "operator",
          "type": "address"
        },
        {
          "indexed": false,
          "internalType": "bool",
          "name": "approved",
          "type": "bool"
        }
      ],
      "name": "ApprovalForAll",
      "type": "event"
    },
    {
      "anonymous": false,
      "inputs": [
        {
          "indexed": true,
          "internalType": "address",
          "name": "previousOwner",
          "type": "address"
        },
        {
          "indexed": true,
          "internalType": "address",
          "name": "newOwner",
          "type": "address"
        }
      ],
      "name": "OwnershipTransferred",
      "type": "event"
    },
    {
      "anonymous": false,
      "inputs": [
        {
          "indexed": true,
          "internalType": "address",
          "name": "from",
          "type": "address"
        },
        {
          "indexed": true,
          "internalType": "address",
          "name": "to",
          "type": "address"
        },
        {
          "indexed": true,
          "internalType": "uint256",
          "name": "tokenId",
          "type": "uint256"
        }
      ],
      "name": "Transfer",
      "type": "event"
    },
    {
      "inputs": [
        {
          "internalType": "address",
          "name": "to",
          "type": "address"
        },
        {
          "internalType": "uint256",
          "name": "tokenId",
          "type": "uint256"
        }
      ],
      "name": "approve",
      "outputs": [],
      "stateMutability": "nonpayable",
      "type": "function"
    },
    {
      "inputs": [
        {
          "internalType": "address",
          "name": "owner",
          "type": "address"
        }
      ],
      "name": "balanceOf",
      "outputs": [
        {
          "internalType": "uint256",
          "name": "",
          "type": "uint256"
        }
      ],
      "stateMutability": "view",
      "type": "function"
    },
    {
      "inputs": [
        {
          "internalType": "uint256",
          "name": "tokenId",
          "type": "uint256"
        }
      ],
      "name": "getApproved",
      "outputs": [
        {
          "internalType": "address",
          "name": "",
          "type": "address"
        }
      ],
      "stateMutability": "view",
      "type": "function"
    },
    {
      "inputs": [
        {
          "internalType": "address",
          "name": "owner",
          "type": "address"
        },
        {
          "internalType": "address",
          "name": "operator",
          "type": "address"
        }
      ],
      "name": "isApprovedForAll",
      "outputs": [
        {
          "internalType": "bool",
          "name": "",
          "type": "bool"
        }
      ],
      "stateMutability": "view",
      "type": "function"
    },
    {
      "inputs": [
        {
          "internalType": "address",
          "name": "addr",
          "type": "address"
        }
      ],
      "name": "mintToken",
      "outputs": [
        {
          "internalType": "uint256",
          "name": "",
          "type": "uint256"
        }
      ],
      "stateMutability": "nonpayable",
      "type": "function"
    },
    {
      "inputs": [],
      "name": "name",
      "outputs": [
        {
          "internalType": "string",
          "name": "",
          "type": "string"
        }
      ],
      "stateMutability": "view",
      "type": "function"
    },
    {
      "inputs": [],
      "name": "owner",
      "outputs": [
        {
          "internalType": "address",
          "name": "",
          "type": "address"
        }
      ],
      "stateMutability": "view",
      "type": "function"
    },
    {
      "inputs": [
        {
          "internalType": "uint256",
          "name": "tokenId",
          "type": "uint256"
        }
      ],
      "name": "ownerOf",
      "outputs": [
        {
          "internalType": "address",
          "name": "",
          "type": "address"
        }
      ],
      "stateMutability": "view",
      "type": "function"
    },
    {
      "inputs": [],
      "name": "renounceOwnership",
      "outputs": [],
      "stateMutability": "nonpayable",
      "type": "function"
    },
    {
      "inputs": [
        {
          "internalType": "uint256",
          "name": "tokenId",
          "type": "uint256"
        }
      ],
      "name": "revealToken",
      "outputs": [],
      "stateMutability": "nonpayable",
      "type": "function"
    },
    {
      "inputs": [
        {
          "internalType": "address",
          "name": "from",
          "type": "address"
        },
        {
          "internalType": "address",
          "name": "to",
          "type": "address"
        },
        {
          "internalType": "uint256",
          "name": "tokenId",
          "type": "uint256"
        }
      ],
      "name": "safeTransferFrom",
      "outputs": [],
      "stateMutability": "nonpayable",
      "type": "function"
    },
    {
      "inputs": [
        {
          "internalType": "address",
          "name": "from",
          "type": "address"
        },
        {
          "internalType": "address",
          "name": "to",
          "type": "address"
        },
        {
          "internalType": "uint256",
          "name": "tokenId",
          "type": "uint256"
        },
        {
          "internalType": "bytes",
          "name": "_data",
          "type": "bytes"
        }
      ],
      "name": "safeTransferFrom",
      "outputs": [],
      "stateMutability": "nonpayable",
      "type": "function"
    },
    {
      "inputs": [
        {
          "internalType": "address",
          "name": "operator",
          "type": "address"
        },
        {
          "internalType": "bool",
          "name": "approved",
          "type": "bool"
        }
      ],
      "name": "setApprovalForAll",
      "outputs": [],
      "stateMutability": "nonpayable",
      "type": "function"
    },
    {
      "inputs": [
        {
          "internalType": "string",
          "name": "newURI",
          "type": "string"
        }
      ],
      "name": "setBaseURI",
      "outputs": [],
      "stateMutability": "nonpayable",
      "type": "function"
    },
    {
      "inputs": [
        {
          "internalType": "string",
          "name": "newURI",
          "type": "string"
        }
      ],
      "name": "setPlaceholderURI",
      "outputs": [],
      "stateMutability": "nonpayable",
      "type": "function"
    },
    {
      "inputs": [
        {
          "internalType": "uint256",
          "name": "newSupplyCap",
          "type": "uint256"
        }
      ],
      "name": "setSupplyCap",
      "outputs": [],
      "stateMutability": "nonpayable",
      "type": "function"
    },
    {
      "inputs": [],
      "name": "supplyCap",
      "outputs": [
        {
          "internalType": "uint256",
          "name": "",
          "type": "uint256"
        }
      ],
      "stateMutability": "view",
      "type": "function"
    },
    {
      "inputs": [
        {
          "internalType": "bytes4",
          "name": "interfaceId",
          "type": "bytes4"
        }
      ],
      "name": "supportsInterface",
      "outputs": [
        {
          "internalType": "bool",
          "name": "",
          "type": "bool"
        }
      ],
      "stateMutability": "view",
      "type": "function"
    },
    {
      "inputs": [],
      "name": "symbol",
      "outputs": [
        {
          "internalType": "string",
          "name": "",
          "type": "string"
        }
      ],
      "stateMutability": "view",
      "type": "function"
    },
    {
      "inputs": [
        {
          "internalType": "uint256",
          "name": "index",
          "type": "uint256"
        }
      ],
      "name": "tokenByIndex",
      "outputs": [
        {
          "internalType": "uint256",
          "name": "",
          "type": "uint256"
        }
      ],
      "stateMutability": "view",
      "type": "function"
    },
    {
      "inputs": [
        {
          "internalType": "address",
          "name": "owner",
          "type": "address"
        },
        {
          "internalType": "uint256",
          "name": "index",
          "type": "uint256"
        }
      ],
      "name": "tokenOfOwnerByIndex",
      "outputs": [
        {
          "internalType": "uint256",
          "name": "",
          "type": "uint256"
        }
      ],
      "stateMutability": "view",
      "type": "function"
    },
    {
      "inputs": [
        {
          "internalType": "uint256",
          "name": "tokenId",
          "type": "uint256"
        }
      ],
      "name": "tokenURI",
      "outputs": [
        {
          "internalType": "string",
          "name": "",
          "type": "string"
        }
      ],
      "stateMutability": "view",
      "type": "function"
    },
    {
      "inputs": [],
      "name": "totalSupply",
      "outputs": [
        {
          "internalType": "uint256",
          "name": "",
          "type": "uint256"
        }
      ],
      "stateMutability": "view",
      "type": "function"
    },
    {
      "inputs": [
        {
          "internalType": "address",
          "name": "from",
          "type": "address"
        },
        {
          "internalType": "address",
          "name": "to",
          "type": "address"
        },
        {
          "internalType": "uint256",
          "name": "tokenId",
          "type": "uint256"
        }
      ],
      "name": "transferFrom",
      "outputs": [],
      "stateMutability": "nonpayable",
      "type": "function"
    },
    {
      "inputs": [
        {
          "internalType": "address",
          "name": "newOwner",
          "type": "address"
        }
      ],
      "name": "transferOwnership",
      "outputs": [],
      "stateMutability": "nonpayable",
      "type": "function"
    }
  ],
  "bytecode": "0x60806040523480156200001157600080fd5b506040518060400160405280600981526020017f4d696c6b546f6b656e00000000000000000000000000000000000000000000008152506040518060400160405280600481526020017f4d494c4b0000000000000000000000000000000000000000000000000000000081525081600090805190602001906200009692919062000e5b565b508060019080519060200190620000af92919062000e5b565b505050620000d2620000c66200019260201b60201c565b6200019a60201b60201c565b6040518060600160405280603181526020016200510d60319139600c90805190602001906200010392919062000e5b565b50604051806060016040528060218152602001620050ec60219139600d90805190602001906200013592919062000e5b565b506064600e819055506200015e620001526200019260201b60201c565b6200026060201b60201c565b506001600f60006001815260200190815260200160002060006101000a81548160ff02191690831515021790555062001547565b600033905090565b6000600a60009054906101000a900473ffffffffffffffffffffffffffffffffffffffff16905081600a60006101000a81548173ffffffffffffffffffffffffffffffffffffffff021916908373ffffffffffffffffffffffffffffffffffffffff1602179055508173ffffffffffffffffffffffffffffffffffffffff168173ffffffffffffffffffffffffffffffffffffffff167f8be0079c531659141344cd1fd0a4f28419497f9722a3daafe3b4186f6b6457e060405160405180910390a35050565b60008160016200027b826200036960201b62000cc81760201c565b10620002be576040517f08c379a0000000000000000000000000000000000000000000000000000000008152600401620002b59062001177565b60405180910390fd5b600e54620002d8600b6200042460201b620014121760201c565b106200031b576040517f08c379a0000000000000000000000000000000000000000000000000000000008152600401620003129062001199565b60405180910390fd5b62000332600b6200043260201b620014201760201c565b60006200034b600b6200042460201b620014121760201c565b90506200035f84826200044860201b60201c565b8092505050919050565b60008073ffffffffffffffffffffffffffffffffffffffff168273ffffffffffffffffffffffffffffffffffffffff161415620003dd576040517f08c379a0000000000000000000000000000000000000000000000000000000008152600401620003d49062001133565b60405180910390fd5b600360008373ffffffffffffffffffffffffffffffffffffffff1673ffffffffffffffffffffffffffffffffffffffff168152602001908152602001600020549050919050565b600081600001549050919050565b6001816000016000828254019250508190555050565b6200046a8282604051806020016040528060008152506200046e60201b60201c565b5050565b620004808383620004dc60201b60201c565b620004956000848484620006c260201b60201c565b620004d7576040517f08c379a0000000000000000000000000000000000000000000000000000000008152600401620004ce90620010ef565b60405180910390fd5b505050565b600073ffffffffffffffffffffffffffffffffffffffff168273ffffffffffffffffffffffffffffffffffffffff1614156200054f576040517f08c379a0000000000000000000000000000000000000000000000000000000008152600401620005469062001155565b60405180910390fd5b62000560816200087c60201b60201c565b15620005a3576040517f08c379a00000000000000000000000000000000000000000000000000000000081526004016200059a9062001111565b60405180910390fd5b620005b760008383620008e860201b60201c565b6001600360008473ffffffffffffffffffffffffffffffffffffffff1673ffffffffffffffffffffffffffffffffffffffff1681526020019081526020016000206000828254620006099190620011e8565b92505081905550816002600083815260200190815260200160002060006101000a81548173ffffffffffffffffffffffffffffffffffffffff021916908373ffffffffffffffffffffffffffffffffffffffff160217905550808273ffffffffffffffffffffffffffffffffffffffff16600073ffffffffffffffffffffffffffffffffffffffff167fddf252ad1be2c89b69c2b068fc378daa952ba7f163c4a11628f55a4df523b3ef60405160405180910390a45050565b6000620006f08473ffffffffffffffffffffffffffffffffffffffff166200096260201b620014361760201c565b156200086f578373ffffffffffffffffffffffffffffffffffffffff1663150b7a02620007226200019260201b60201c565b8786866040518563ffffffff1660e01b81526004016200074694939291906200109b565b602060405180830381600087803b1580156200076157600080fd5b505af19250505080156200079557506040513d601f19601f8201168201806040525081019062000792919062000f22565b60015b6200081e573d8060008114620007c8576040519150601f19603f3d011682016040523d82523d6000602084013e620007cd565b606091505b5060008151141562000816576040517f08c379a00000000000000000000000000000000000000000000000000000000081526004016200080d90620010ef565b60405180910390fd5b805181602001fd5b63150b7a0260e01b7bffffffffffffffffffffffffffffffffffffffffffffffffffffffff1916817bffffffffffffffffffffffffffffffffffffffffffffffffffffffff19161491505062000874565b600190505b949350505050565b60008073ffffffffffffffffffffffffffffffffffffffff166002600084815260200190815260200160002060009054906101000a900473ffffffffffffffffffffffffffffffffffffffff1673ffffffffffffffffffffffffffffffffffffffff1614159050919050565b81600162000901826200036960201b62000cc81760201c565b1062000944576040517f08c379a00000000000000000000000000000000000000000000000000000000081526004016200093b9062001177565b60405180910390fd5b6200095c8484846200097560201b620014491760201c565b50505050565b600080823b905060008111915050919050565b6200098d83838362000abc60201b6200155d1760201c565b600073ffffffffffffffffffffffffffffffffffffffff168373ffffffffffffffffffffffffffffffffffffffff161415620009da57620009d48162000ac160201b60201c565b62000a22565b8173ffffffffffffffffffffffffffffffffffffffff168373ffffffffffffffffffffffffffffffffffffffff161462000a215762000a20838262000b0a60201b60201c565b5b5b600073ffffffffffffffffffffffffffffffffffffffff168273ffffffffffffffffffffffffffffffffffffffff16141562000a6f5762000a698162000c8760201b60201c565b62000ab7565b8273ffffffffffffffffffffffffffffffffffffffff168273ffffffffffffffffffffffffffffffffffffffff161462000ab65762000ab5828262000dcf60201b60201c565b5b5b505050565b505050565b6008805490506009600083815260200190815260200160002081905550600881908060018154018082558091505060019003906000526020600020016000909190919091505550565b6000600162000b24846200036960201b62000cc81760201c565b62000b30919062001245565b905060006007600084815260200190815260200160002054905081811462000c16576000600660008673ffffffffffffffffffffffffffffffffffffffff1673ffffffffffffffffffffffffffffffffffffffff168152602001908152602001600020600084815260200190815260200160002054905080600660008773ffffffffffffffffffffffffffffffffffffffff1673ffffffffffffffffffffffffffffffffffffffff168152602001908152602001600020600084815260200190815260200160002081905550816007600083815260200190815260200160002081905550505b6007600084815260200190815260200160002060009055600660008573ffffffffffffffffffffffffffffffffffffffff1673ffffffffffffffffffffffffffffffffffffffff16815260200190815260200160002060008381526020019081526020016000206000905550505050565b6000600160088054905062000c9d919062001245565b905060006009600084815260200190815260200160002054905060006008838154811062000cf4577f4e487b7100000000000000000000000000000000000000000000000000000000600052603260045260246000fd5b90600052602060002001549050806008838154811062000d3d577f4e487b7100000000000000000000000000000000000000000000000000000000600052603260045260246000fd5b90600052602060002001819055508160096000838152602001908152602001600020819055506009600085815260200190815260200160002060009055600880548062000db3577f4e487b7100000000000000000000000000000000000000000000000000000000600052603160045260246000fd5b6001900381819060005260206000200160009055905550505050565b600062000de7836200036960201b62000cc81760201c565b905081600660008573ffffffffffffffffffffffffffffffffffffffff1673ffffffffffffffffffffffffffffffffffffffff168152602001908152602001600020600083815260200190815260200160002081905550806007600084815260200190815260200160002081905550505050565b82805462000e699062001320565b90600052602060002090601f01602090048101928262000e8d576000855562000ed9565b82601f1062000ea857805160ff191683800117855562000ed9565b8280016001018555821562000ed9579182015b8281111562000ed857825182559160200191906001019062000ebb565b5b50905062000ee8919062000eec565b5090565b5b8082111562000f0757600081600090555060010162000eed565b5090565b60008151905062000f1c816200152d565b92915050565b60006020828403121562000f3557600080fd5b600062000f458482850162000f0b565b91505092915050565b62000f598162001280565b82525050565b600062000f6c82620011bb565b62000f788185620011c6565b935062000f8a818560208601620012ea565b62000f9581620013b4565b840191505092915050565b600062000faf603283620011d7565b915062000fbc82620013c5565b604082019050919050565b600062000fd6601c83620011d7565b915062000fe38262001414565b602082019050919050565b600062000ffd602a83620011d7565b91506200100a826200143d565b604082019050919050565b600062001024602083620011d7565b915062001031826200148c565b602082019050919050565b60006200104b602583620011d7565b91506200105882620014b5565b604082019050919050565b600062001072601d83620011d7565b91506200107f8262001504565b602082019050919050565b6200109581620012e0565b82525050565b6000608082019050620010b2600083018762000f4e565b620010c1602083018662000f4e565b620010d060408301856200108a565b8181036060830152620010e4818462000f5f565b905095945050505050565b600060208201905081810360008301526200110a8162000fa0565b9050919050565b600060208201905081810360008301526200112c8162000fc7565b9050919050565b600060208201905081810360008301526200114e8162000fee565b9050919050565b60006020820190508181036000830152620011708162001015565b9050919050565b6000602082019050818103600083015262001192816200103c565b9050919050565b60006020820190508181036000830152620011b48162001063565b9050919050565b600081519050919050565b600082825260208201905092915050565b600082825260208201905092915050565b6000620011f582620012e0565b91506200120283620012e0565b9250827fffffffffffffffffffffffffffffffffffffffffffffffffffffffffffffffff038211156200123a576200123962001356565b5b828201905092915050565b60006200125282620012e0565b91506200125f83620012e0565b92508282101562001275576200127462001356565b5b828203905092915050565b60006200128d82620012c0565b9050919050565b60007fffffffff0000000000000000000000000000000000000000000000000000000082169050919050565b600073ffffffffffffffffffffffffffffffffffffffff82169050919050565b6000819050919050565b60005b838110156200130a578082015181840152602081019050620012ed565b838111156200131a576000848401525b50505050565b600060028204905060018216806200133957607f821691505b6020821081141562001350576200134f62001385565b5b50919050565b7f4e487b7100000000000000000000000000000000000000000000000000000000600052601160045260246000fd5b7f4e487b7100000000000000000000000000000000000000000000000000000000600052602260045260246000fd5b6000601f19601f8301169050919050565b7f4552433732313a207472616e7366657220746f206e6f6e20455243373231526560008201527f63656976657220696d706c656d656e7465720000000000000000000000000000602082015250565b7f4552433732313a20746f6b656e20616c7265616479206d696e74656400000000600082015250565b7f4552433732313a2062616c616e636520717565727920666f7220746865207a6560008201527f726f206164647265737300000000000000000000000000000000000000000000602082015250565b7f4552433732313a206d696e7420746f20746865207a65726f2061646472657373600082015250565b7f4d696c6b546f6b656e3a2063616e6e6f74206f776e206d6f7265204d696c6b5460008201527f6f6b656e73000000000000000000000000000000000000000000000000000000602082015250565b7f4d696c6b546f6b656e3a20737570706c79206361702072656163686564000000600082015250565b620015388162001294565b81146200154457600080fd5b50565b613b9580620015576000396000f3fe608060405234801561001057600080fd5b50600436106101735760003560e01c80635a46cf3d116100de57806395d89b4111610097578063b88d4fde11610071578063b88d4fde14610448578063c87b56dd14610464578063e985e9c514610494578063f2fde38b146104c457610173565b806395d89b41146103f2578063a22cb46514610410578063b6a3f59a1461042c57610173565b80635a46cf3d146103305780636352211e1461034c57806370a082311461037c578063715018a6146103ac5780638da5cb5b146103b65780638f770ad0146103d457610173565b806323b872dd1161013057806323b872dd146102605780632f745c591461027c5780633574a2dd146102ac57806342842e0e146102c85780634f6ccce7146102e457806355f804b31461031457610173565b806301173a741461017857806301ffc9a7146101a857806306fdde03146101d8578063081812fc146101f6578063095ea7b31461022657806318160ddd14610242575b600080fd5b610192600480360381019061018d9190612773565b6104e0565b60405161019f9190613157565b60405180910390f35b6101c260048036038101906101bd919061291a565b6105a7565b6040516101cf9190612e9a565b60405180910390f35b6101e0610621565b6040516101ed9190612eb5565b60405180910390f35b610210600480360381019061020b91906129ad565b6106b3565b60405161021d9190612e33565b60405180910390f35b610240600480360381019061023b91906128de565b610738565b005b61024a610850565b6040516102579190613157565b60405180910390f35b61027a600480360381019061027591906127d8565b61085d565b005b610296600480360381019061029191906128de565b6108bd565b6040516102a39190613157565b60405180910390f35b6102c660048036038101906102c1919061296c565b610962565b005b6102e260048036038101906102dd91906127d8565b610a1e565b005b6102fe60048036038101906102f991906129ad565b610a3e565b60405161030b9190613157565b60405180910390f35b61032e6004803603810190610329919061296c565b610ad5565b005b61034a600480360381019061034591906129ad565b610b6b565b005b610366600480360381019061036191906129ad565b610c16565b6040516103739190612e33565b60405180910390f35b61039660048036038101906103919190612773565b610cc8565b6040516103a39190613157565b60405180910390f35b6103b4610d80565b005b6103be610e08565b6040516103cb9190612e33565b60405180910390f35b6103dc610e32565b6040516103e99190613157565b60405180910390f35b6103fa610e3c565b6040516104079190612eb5565b60405180910390f35b61042a600480360381019061042591906128a2565b610ece565b005b610446600480360381019061044191906129ad565b61104f565b005b610462600480360381019061045d9190612827565b6110d5565b005b61047e600480360381019061047991906129ad565b611137565b60405161048b9190612eb5565b60405180910390f35b6104ae60048036038101906104a9919061279c565b611286565b6040516104bb9190612e9a565b60405180910390f35b6104de60048036038101906104d99190612773565b61131a565b005b60008160016104ee82610cc8565b1061052e576040517f08c379a0000000000000000000000000000000000000000000000000000000008152600401610525906130b7565b60405180910390fd5b600e5461053b600b611412565b1061057b576040517f08c379a000000000000000000000000000000000000000000000000000000000815260040161057290613137565b60405180910390fd5b610585600b611420565b6000610591600b611412565b905061059d8482611562565b8092505050919050565b60007f780e9d63000000000000000000000000000000000000000000000000000000007bffffffffffffffffffffffffffffffffffffffffffffffffffffffff1916827bffffffffffffffffffffffffffffffffffffffffffffffffffffffff1916148061061a575061061982611580565b5b9050919050565b606060008054610630906133c2565b80601f016020809104026020016040519081016040528092919081815260200182805461065c906133c2565b80156106a95780601f1061067e576101008083540402835291602001916106a9565b820191906000526020600020905b81548152906001019060200180831161068c57829003601f168201915b5050505050905090565b60006106be82611662565b6106fd576040517f08c379a00000000000000000000000000000000000000000000000000000000081526004016106f490613037565b60405180910390fd5b6004600083815260200190815260200160002060009054906101000a900473ffffffffffffffffffffffffffffffffffffffff169050919050565b600061074382610c16565b90508073ffffffffffffffffffffffffffffffffffffffff168373ffffffffffffffffffffffffffffffffffffffff1614156107b4576040517f08c379a00000000000000000000000000000000000000000000000000000000081526004016107ab906130d7565b60405180910390fd5b8073ffffffffffffffffffffffffffffffffffffffff166107d36116ce565b73ffffffffffffffffffffffffffffffffffffffff1614806108025750610801816107fc6116ce565b611286565b5b610841576040517f08c379a000000000000000000000000000000000000000000000000000000000815260040161083890612fb7565b60405180910390fd5b61084b83836116d6565b505050565b6000600880549050905090565b61086e6108686116ce565b8261178f565b6108ad576040517f08c379a00000000000000000000000000000000000000000000000000000000081526004016108a4906130f7565b60405180910390fd5b6108b883838361186d565b505050565b60006108c883610cc8565b8210610909576040517f08c379a000000000000000000000000000000000000000000000000000000000815260040161090090612ed7565b60405180910390fd5b600660008473ffffffffffffffffffffffffffffffffffffffff1673ffffffffffffffffffffffffffffffffffffffff168152602001908152602001600020600083815260200190815260200160002054905092915050565b61096a6116ce565b73ffffffffffffffffffffffffffffffffffffffff16610988610e08565b73ffffffffffffffffffffffffffffffffffffffff16146109de576040517f08c379a00000000000000000000000000000000000000000000000000000000081526004016109d590613057565b60405180910390fd5b80600c90805190602001906109f4929190612597565b5060405180602001604052806000815250600d9080519060200190610a1a929190612597565b5050565b610a39838383604051806020016040528060008152506110d5565b505050565b6000610a48610850565b8210610a89576040517f08c379a0000000000000000000000000000000000000000000000000000000008152600401610a8090613117565b60405180910390fd5b60088281548110610ac3577f4e487b7100000000000000000000000000000000000000000000000000000000600052603260045260246000fd5b90600052602060002001549050919050565b610add6116ce565b73ffffffffffffffffffffffffffffffffffffffff16610afb610e08565b73ffffffffffffffffffffffffffffffffffffffff1614610b51576040517f08c379a0000000000000000000000000000000000000000000000000000000008152600401610b4890613057565b60405180910390fd5b80600d9080519060200190610b67929190612597565b5050565b610b736116ce565b73ffffffffffffffffffffffffffffffffffffffff16610b91610e08565b73ffffffffffffffffffffffffffffffffffffffff1614610be7576040517f08c379a0000000000000000000000000000000000000000000000000000000008152600401610bde90613057565b60405180910390fd5b6001600f600083815260200190815260200160002060006101000a81548160ff02191690831515021790555050565b6000806002600084815260200190815260200160002060009054906101000a900473ffffffffffffffffffffffffffffffffffffffff169050600073ffffffffffffffffffffffffffffffffffffffff168173ffffffffffffffffffffffffffffffffffffffff161415610cbf576040517f08c379a0000000000000000000000000000000000000000000000000000000008152600401610cb690612ff7565b60405180910390fd5b80915050919050565b60008073ffffffffffffffffffffffffffffffffffffffff168273ffffffffffffffffffffffffffffffffffffffff161415610d39576040517f08c379a0000000000000000000000000000000000000000000000000000000008152600401610d3090612fd7565b60405180910390fd5b600360008373ffffffffffffffffffffffffffffffffffffffff1673ffffffffffffffffffffffffffffffffffffffff168152602001908152602001600020549050919050565b610d886116ce565b73ffffffffffffffffffffffffffffffffffffffff16610da6610e08565b73ffffffffffffffffffffffffffffffffffffffff1614610dfc576040517f08c379a0000000000000000000000000000000000000000000000000000000008152600401610df390613057565b60405180910390fd5b610e066000611ac9565b565b6000600a60009054906101000a900473ffffffffffffffffffffffffffffffffffffffff16905090565b6000600e54905090565b606060018054610e4b906133c2565b80601f0160208091040260200160405190810160405280929190818152602001828054610e77906133c2565b8015610ec45780601f10610e9957610100808354040283529160200191610ec4565b820191906000526020600020905b815481529060010190602001808311610ea757829003601f168201915b5050505050905090565b610ed66116ce565b73ffffffffffffffffffffffffffffffffffffffff168273ffffffffffffffffffffffffffffffffffffffff161415610f44576040517f08c379a0000000000000000000000000000000000000000000000000000000008152600401610f3b90612f77565b60405180910390fd5b8060056000610f516116ce565b73ffffffffffffffffffffffffffffffffffffffff1673ffffffffffffffffffffffffffffffffffffffff16815260200190815260200160002060008473ffffffffffffffffffffffffffffffffffffffff1673ffffffffffffffffffffffffffffffffffffffff16815260200190815260200160002060006101000a81548160ff0219169083151502179055508173ffffffffffffffffffffffffffffffffffffffff16610ffe6116ce565b73ffffffffffffffffffffffffffffffffffffffff167f17307eab39ab6107e8899845ad3d59bd9653f200f220920489ca2b5937696c31836040516110439190612e9a565b60405180910390a35050565b6110576116ce565b73ffffffffffffffffffffffffffffffffffffffff16611075610e08565b73ffffffffffffffffffffffffffffffffffffffff16146110cb576040517f08c379a00000000000000000000000000000000000000000000000000000000081526004016110c290613057565b60405180910390fd5b80600e8190555050565b6110e66110e06116ce565b8361178f565b611125576040517f08c379a000000000000000000000000000000000000000000000000000000000815260040161111c906130f7565b60405180910390fd5b61113184848484611b8f565b50505050565b606061114282611662565b611181576040517f08c379a000000000000000000000000000000000000000000000000000000000815260040161117890613097565b60405180910390fd5b600f600083815260200190815260200160002060009054906101000a900460ff1680156111bc57506000600d80546111b8906133c2565b9050115b156111f357600d6111cc83611beb565b6040516020016111dd929190612e04565b6040516020818303038152906040529050611281565b600c8054611200906133c2565b80601f016020809104026020016040519081016040528092919081815260200182805461122c906133c2565b80156112795780601f1061124e57610100808354040283529160200191611279565b820191906000526020600020905b81548152906001019060200180831161125c57829003601f168201915b505050505090505b919050565b6000600560008473ffffffffffffffffffffffffffffffffffffffff1673ffffffffffffffffffffffffffffffffffffffff16815260200190815260200160002060008373ffffffffffffffffffffffffffffffffffffffff1673ffffffffffffffffffffffffffffffffffffffff16815260200190815260200160002060009054906101000a900460ff16905092915050565b6113226116ce565b73ffffffffffffffffffffffffffffffffffffffff16611340610e08565b73ffffffffffffffffffffffffffffffffffffffff1614611396576040517f08c379a000000000000000000000000000000000000000000000000000000000815260040161138d90613057565b60405180910390fd5b600073ffffffffffffffffffffffffffffffffffffffff168173ffffffffffffffffffffffffffffffffffffffff161415611406576040517f08c379a00000000000000000000000000000000000000000000000000000000081526004016113fd90612f17565b60405180910390fd5b61140f81611ac9565b50565b600081600001549050919050565b6001816000016000828254019250508190555050565b600080823b905060008111915050919050565b61145483838361155d565b600073ffffffffffffffffffffffffffffffffffffffff168373ffffffffffffffffffffffffffffffffffffffff1614156114975761149281611d98565b6114d6565b8173ffffffffffffffffffffffffffffffffffffffff168373ffffffffffffffffffffffffffffffffffffffff16146114d5576114d48382611de1565b5b5b600073ffffffffffffffffffffffffffffffffffffffff168273ffffffffffffffffffffffffffffffffffffffff1614156115195761151481611f4e565b611558565b8273ffffffffffffffffffffffffffffffffffffffff168273ffffffffffffffffffffffffffffffffffffffff1614611557576115568282612091565b5b5b505050565b505050565b61157c828260405180602001604052806000815250612110565b5050565b60007f80ac58cd000000000000000000000000000000000000000000000000000000007bffffffffffffffffffffffffffffffffffffffffffffffffffffffff1916827bffffffffffffffffffffffffffffffffffffffffffffffffffffffff1916148061164b57507f5b5e139f000000000000000000000000000000000000000000000000000000007bffffffffffffffffffffffffffffffffffffffffffffffffffffffff1916827bffffffffffffffffffffffffffffffffffffffffffffffffffffffff1916145b8061165b575061165a8261216b565b5b9050919050565b60008073ffffffffffffffffffffffffffffffffffffffff166002600084815260200190815260200160002060009054906101000a900473ffffffffffffffffffffffffffffffffffffffff1673ffffffffffffffffffffffffffffffffffffffff1614159050919050565b600033905090565b816004600083815260200190815260200160002060006101000a81548173ffffffffffffffffffffffffffffffffffffffff021916908373ffffffffffffffffffffffffffffffffffffffff160217905550808273ffffffffffffffffffffffffffffffffffffffff1661174983610c16565b73ffffffffffffffffffffffffffffffffffffffff167f8c5be1e5ebec7d5bd14f71427d1e84f3dd0314c0f7b2291e5b200ac8c7c3b92560405160405180910390a45050565b600061179a82611662565b6117d9576040517f08c379a00000000000000000000000000000000000000000000000000000000081526004016117d090612f97565b60405180910390fd5b60006117e483610c16565b90508073ffffffffffffffffffffffffffffffffffffffff168473ffffffffffffffffffffffffffffffffffffffff16148061185357508373ffffffffffffffffffffffffffffffffffffffff1661183b846106b3565b73ffffffffffffffffffffffffffffffffffffffff16145b8061186457506118638185611286565b5b91505092915050565b8273ffffffffffffffffffffffffffffffffffffffff1661188d82610c16565b73ffffffffffffffffffffffffffffffffffffffff16146118e3576040517f08c379a00000000000000000000000000000000000000000000000000000000081526004016118da90613077565b60405180910390fd5b600073ffffffffffffffffffffffffffffffffffffffff168273ffffffffffffffffffffffffffffffffffffffff161415611953576040517f08c379a000000000000000000000000000000000000000000000000000000000815260040161194a90612f57565b60405180910390fd5b61195e8383836121d5565b6119696000826116d6565b6001600360008573ffffffffffffffffffffffffffffffffffffffff1673ffffffffffffffffffffffffffffffffffffffff16815260200190815260200160002060008282546119b991906132d8565b925050819055506001600360008473ffffffffffffffffffffffffffffffffffffffff1673ffffffffffffffffffffffffffffffffffffffff1681526020019081526020016000206000828254611a109190613251565b92505081905550816002600083815260200190815260200160002060006101000a81548173ffffffffffffffffffffffffffffffffffffffff021916908373ffffffffffffffffffffffffffffffffffffffff160217905550808273ffffffffffffffffffffffffffffffffffffffff168473ffffffffffffffffffffffffffffffffffffffff167fddf252ad1be2c89b69c2b068fc378daa952ba7f163c4a11628f55a4df523b3ef60405160405180910390a4505050565b6000600a60009054906101000a900473ffffffffffffffffffffffffffffffffffffffff16905081600a60006101000a81548173ffffffffffffffffffffffffffffffffffffffff021916908373ffffffffffffffffffffffffffffffffffffffff1602179055508173ffffffffffffffffffffffffffffffffffffffff168173ffffffffffffffffffffffffffffffffffffffff167f8be0079c531659141344cd1fd0a4f28419497f9722a3daafe3b4186f6b6457e060405160405180910390a35050565b611b9a84848461186d565b611ba684848484612232565b611be5576040517f08c379a0000000000000000000000000000000000000000000000000000000008152600401611bdc90612ef7565b60405180910390fd5b50505050565b60606000821415611c33576040518060400160405280600181526020017f30000000000000000000000000000000000000000000000000000000000000008152509050611d93565b600082905060005b60008214611c65578080611c4e90613425565b915050600a82611c5e91906132a7565b9150611c3b565b60008167ffffffffffffffff811115611ca7577f4e487b7100000000000000000000000000000000000000000000000000000000600052604160045260246000fd5b6040519080825280601f01601f191660200182016040528015611cd95781602001600182028036833780820191505090505b5090505b60008514611d8c57600182611cf291906132d8565b9150600a85611d01919061346e565b6030611d0d9190613251565b60f81b818381518110611d49577f4e487b7100000000000000000000000000000000000000000000000000000000600052603260045260246000fd5b60200101907effffffffffffffffffffffffffffffffffffffffffffffffffffffffffffff1916908160001a905350600a85611d8591906132a7565b9450611cdd565b8093505050505b919050565b6008805490506009600083815260200190815260200160002081905550600881908060018154018082558091505060019003906000526020600020016000909190919091505550565b60006001611dee84610cc8565b611df891906132d8565b9050600060076000848152602001908152602001600020549050818114611edd576000600660008673ffffffffffffffffffffffffffffffffffffffff1673ffffffffffffffffffffffffffffffffffffffff168152602001908152602001600020600084815260200190815260200160002054905080600660008773ffffffffffffffffffffffffffffffffffffffff1673ffffffffffffffffffffffffffffffffffffffff168152602001908152602001600020600084815260200190815260200160002081905550816007600083815260200190815260200160002081905550505b6007600084815260200190815260200160002060009055600660008573ffffffffffffffffffffffffffffffffffffffff1673ffffffffffffffffffffffffffffffffffffffff16815260200190815260200160002060008381526020019081526020016000206000905550505050565b60006001600880549050611f6291906132d8565b9050600060096000848152602001908152602001600020549050600060088381548110611fb8577f4e487b7100000000000000000000000000000000000000000000000000000000600052603260045260246000fd5b906000526020600020015490508060088381548110612000577f4e487b7100000000000000000000000000000000000000000000000000000000600052603260045260246000fd5b906000526020600020018190555081600960008381526020019081526020016000208190555060096000858152602001908152602001600020600090556008805480612075577f4e487b7100000000000000000000000000000000000000000000000000000000600052603160045260246000fd5b6001900381819060005260206000200160009055905550505050565b600061209c83610cc8565b905081600660008573ffffffffffffffffffffffffffffffffffffffff1673ffffffffffffffffffffffffffffffffffffffff168152602001908152602001600020600083815260200190815260200160002081905550806007600084815260200190815260200160002081905550505050565b61211a83836123c9565b6121276000848484612232565b612166576040517f08c379a000000000000000000000000000000000000000000000000000000000815260040161215d90612ef7565b60405180910390fd5b505050565b60007f01ffc9a7000000000000000000000000000000000000000000000000000000007bffffffffffffffffffffffffffffffffffffffffffffffffffffffff1916827bffffffffffffffffffffffffffffffffffffffffffffffffffffffff1916149050919050565b8160016121e182610cc8565b10612221576040517f08c379a0000000000000000000000000000000000000000000000000000000008152600401612218906130b7565b60405180910390fd5b61222c848484611449565b50505050565b60006122538473ffffffffffffffffffffffffffffffffffffffff16611436565b156123bc578373ffffffffffffffffffffffffffffffffffffffff1663150b7a0261227c6116ce565b8786866040518563ffffffff1660e01b815260040161229e9493929190612e4e565b602060405180830381600087803b1580156122b857600080fd5b505af19250505080156122e957506040513d601f19601f820116820180604052508101906122e69190612943565b60015b61236c573d8060008114612319576040519150601f19603f3d011682016040523d82523d6000602084013e61231e565b606091505b50600081511415612364576040517f08c379a000000000000000000000000000000000000000000000000000000000815260040161235b90612ef7565b60405180910390fd5b805181602001fd5b63150b7a0260e01b7bffffffffffffffffffffffffffffffffffffffffffffffffffffffff1916817bffffffffffffffffffffffffffffffffffffffffffffffffffffffff1916149150506123c1565b600190505b949350505050565b600073ffffffffffffffffffffffffffffffffffffffff168273ffffffffffffffffffffffffffffffffffffffff161415612439576040517f08c379a000000000000000000000000000000000000000000000000000000000815260040161243090613017565b60405180910390fd5b61244281611662565b15612482576040517f08c379a000000000000000000000000000000000000000000000000000000000815260040161247990612f37565b60405180910390fd5b61248e600083836121d5565b6001600360008473ffffffffffffffffffffffffffffffffffffffff1673ffffffffffffffffffffffffffffffffffffffff16815260200190815260200160002060008282546124de9190613251565b92505081905550816002600083815260200190815260200160002060006101000a81548173ffffffffffffffffffffffffffffffffffffffff021916908373ffffffffffffffffffffffffffffffffffffffff160217905550808273ffffffffffffffffffffffffffffffffffffffff16600073ffffffffffffffffffffffffffffffffffffffff167fddf252ad1be2c89b69c2b068fc378daa952ba7f163c4a11628f55a4df523b3ef60405160405180910390a45050565b8280546125a3906133c2565b90600052602060002090601f0160209004810192826125c5576000855561260c565b82601f106125de57805160ff191683800117855561260c565b8280016001018555821561260c579182015b8281111561260b5782518255916020019190600101906125f0565b5b509050612619919061261d565b5090565b5b8082111561263657600081600090555060010161261e565b5090565b600061264d61264884613197565b613172565b90508281526020810184848401111561266557600080fd5b612670848285613380565b509392505050565b600061268b612686846131c8565b613172565b9050828152602081018484840111156126a357600080fd5b6126ae848285613380565b509392505050565b6000813590506126c581613b03565b92915050565b6000813590506126da81613b1a565b92915050565b6000813590506126ef81613b31565b92915050565b60008151905061270481613b31565b92915050565b600082601f83011261271b57600080fd5b813561272b84826020860161263a565b91505092915050565b600082601f83011261274557600080fd5b8135612755848260208601612678565b91505092915050565b60008135905061276d81613b48565b92915050565b60006020828403121561278557600080fd5b6000612793848285016126b6565b91505092915050565b600080604083850312156127af57600080fd5b60006127bd858286016126b6565b92505060206127ce858286016126b6565b9150509250929050565b6000806000606084860312156127ed57600080fd5b60006127fb868287016126b6565b935050602061280c868287016126b6565b925050604061281d8682870161275e565b9150509250925092565b6000806000806080858703121561283d57600080fd5b600061284b878288016126b6565b945050602061285c878288016126b6565b935050604061286d8782880161275e565b925050606085013567ffffffffffffffff81111561288a57600080fd5b6128968782880161270a565b91505092959194509250565b600080604083850312156128b557600080fd5b60006128c3858286016126b6565b92505060206128d4858286016126cb565b9150509250929050565b600080604083850312156128f157600080fd5b60006128ff858286016126b6565b92505060206129108582860161275e565b9150509250929050565b60006020828403121561292c57600080fd5b600061293a848285016126e0565b91505092915050565b60006020828403121561295557600080fd5b6000612963848285016126f5565b91505092915050565b60006020828403121561297e57600080fd5b600082013567ffffffffffffffff81111561299857600080fd5b6129a484828501612734565b91505092915050565b6000602082840312156129bf57600080fd5b60006129cd8482850161275e565b91505092915050565b6129df8161330c565b82525050565b6129ee8161331e565b82525050565b60006129ff8261320e565b612a098185613224565b9350612a1981856020860161338f565b612a228161355b565b840191505092915050565b6000612a3882613219565b612a428185613235565b9350612a5281856020860161338f565b612a5b8161355b565b840191505092915050565b6000612a7182613219565b612a7b8185613246565b9350612a8b81856020860161338f565b80840191505092915050565b60008154612aa4816133c2565b612aae8186613246565b94506001821660008114612ac95760018114612ada57612b0d565b60ff19831686528186019350612b0d565b612ae3856131f9565b60005b83811015612b0557815481890152600182019150602081019050612ae6565b838801955050505b50505092915050565b6000612b23602b83613235565b9150612b2e8261356c565b604082019050919050565b6000612b46603283613235565b9150612b51826135bb565b604082019050919050565b6000612b69602683613235565b9150612b748261360a565b604082019050919050565b6000612b8c601c83613235565b9150612b9782613659565b602082019050919050565b6000612baf602483613235565b9150612bba82613682565b604082019050919050565b6000612bd2601983613235565b9150612bdd826136d1565b602082019050919050565b6000612bf5602c83613235565b9150612c00826136fa565b604082019050919050565b6000612c18603883613235565b9150612c2382613749565b604082019050919050565b6000612c3b602a83613235565b9150612c4682613798565b604082019050919050565b6000612c5e602983613235565b9150612c69826137e7565b604082019050919050565b6000612c81602083613235565b9150612c8c82613836565b602082019050919050565b6000612ca4602c83613235565b9150612caf8261385f565b604082019050919050565b6000612cc7600583613246565b9150612cd2826138ae565b600582019050919050565b6000612cea602083613235565b9150612cf5826138d7565b602082019050919050565b6000612d0d602983613235565b9150612d1882613900565b604082019050919050565b6000612d30602f83613235565b9150612d3b8261394f565b604082019050919050565b6000612d53602583613235565b9150612d5e8261399e565b604082019050919050565b6000612d76602183613235565b9150612d81826139ed565b604082019050919050565b6000612d99603183613235565b9150612da482613a3c565b604082019050919050565b6000612dbc602c83613235565b9150612dc782613a8b565b604082019050919050565b6000612ddf601d83613235565b9150612dea82613ada565b602082019050919050565b612dfe81613376565b82525050565b6000612e108285612a97565b9150612e1c8284612a66565b9150612e2782612cba565b91508190509392505050565b6000602082019050612e4860008301846129d6565b92915050565b6000608082019050612e6360008301876129d6565b612e7060208301866129d6565b612e7d6040830185612df5565b8181036060830152612e8f81846129f4565b905095945050505050565b6000602082019050612eaf60008301846129e5565b92915050565b60006020820190508181036000830152612ecf8184612a2d565b905092915050565b60006020820190508181036000830152612ef081612b16565b9050919050565b60006020820190508181036000830152612f1081612b39565b9050919050565b60006020820190508181036000830152612f3081612b5c565b9050919050565b60006020820190508181036000830152612f5081612b7f565b9050919050565b60006020820190508181036000830152612f7081612ba2565b9050919050565b60006020820190508181036000830152612f9081612bc5565b9050919050565b60006020820190508181036000830152612fb081612be8565b9050919050565b60006020820190508181036000830152612fd081612c0b565b9050919050565b60006020820190508181036000830152612ff081612c2e565b9050919050565b6000602082019050818103600083015261301081612c51565b9050919050565b6000602082019050818103600083015261303081612c74565b9050919050565b6000602082019050818103600083015261305081612c97565b9050919050565b6000602082019050818103600083015261307081612cdd565b9050919050565b6000602082019050818103600083015261309081612d00565b9050919050565b600060208201905081810360008301526130b081612d23565b9050919050565b600060208201905081810360008301526130d081612d46565b9050919050565b600060208201905081810360008301526130f081612d69565b9050919050565b6000602082019050818103600083015261311081612d8c565b9050919050565b6000602082019050818103600083015261313081612daf565b9050919050565b6000602082019050818103600083015261315081612dd2565b9050919050565b600060208201905061316c6000830184612df5565b92915050565b600061317c61318d565b905061318882826133f4565b919050565b6000604051905090565b600067ffffffffffffffff8211156131b2576131b161352c565b5b6131bb8261355b565b9050602081019050919050565b600067ffffffffffffffff8211156131e3576131e261352c565b5b6131ec8261355b565b9050602081019050919050565b60008190508160005260206000209050919050565b600081519050919050565b600081519050919050565b600082825260208201905092915050565b600082825260208201905092915050565b600081905092915050565b600061325c82613376565b915061326783613376565b9250827fffffffffffffffffffffffffffffffffffffffffffffffffffffffffffffffff0382111561329c5761329b61349f565b5b828201905092915050565b60006132b282613376565b91506132bd83613376565b9250826132cd576132cc6134ce565b5b828204905092915050565b60006132e382613376565b91506132ee83613376565b9250828210156133015761330061349f565b5b828203905092915050565b600061331782613356565b9050919050565b60008115159050919050565b60007fffffffff0000000000000000000000000000000000000000000000000000000082169050919050565b600073ffffffffffffffffffffffffffffffffffffffff82169050919050565b6000819050919050565b82818337600083830152505050565b60005b838110156133ad578082015181840152602081019050613392565b838111156133bc576000848401525b50505050565b600060028204905060018216806133da57607f821691505b602082108114156133ee576133ed6134fd565b5b50919050565b6133fd8261355b565b810181811067ffffffffffffffff8211171561341c5761341b61352c565b5b80604052505050565b600061343082613376565b91507fffffffffffffffffffffffffffffffffffffffffffffffffffffffffffffffff8214156134635761346261349f565b5b600182019050919050565b600061347982613376565b915061348483613376565b925082613494576134936134ce565b5b828206905092915050565b7f4e487b7100000000000000000000000000000000000000000000000000000000600052601160045260246000fd5b7f4e487b7100000000000000000000000000000000000000000000000000000000600052601260045260246000fd5b7f4e487b7100000000000000000000000000000000000000000000000000000000600052602260045260246000fd5b7f4e487b7100000000000000000000000000000000000000000000000000000000600052604160045260246000fd5b6000601f19601f8301169050919050565b7f455243373231456e756d657261626c653a206f776e657220696e646578206f7560008201527f74206f6620626f756e6473000000000000000000000000000000000000000000602082015250565b7f4552433732313a207472616e7366657220746f206e6f6e20455243373231526560008201527f63656976657220696d706c656d656e7465720000000000000000000000000000602082015250565b7f4f776e61626c653a206e6577206f776e657220697320746865207a65726f206160008201527f6464726573730000000000000000000000000000000000000000000000000000602082015250565b7f4552433732313a20746f6b656e20616c7265616479206d696e74656400000000600082015250565b7f4552433732313a207472616e7366657220746f20746865207a65726f2061646460008201527f7265737300000000000000000000000000000000000000000000000000000000602082015250565b7f4552433732313a20617070726f766520746f2063616c6c657200000000000000600082015250565b7f4552433732313a206f70657261746f7220717565727920666f72206e6f6e657860008201527f697374656e7420746f6b656e0000000000000000000000000000000000000000602082015250565b7f4552433732313a20617070726f76652063616c6c6572206973206e6f74206f7760008201527f6e6572206e6f7220617070726f76656420666f7220616c6c0000000000000000602082015250565b7f4552433732313a2062616c616e636520717565727920666f7220746865207a6560008201527f726f206164647265737300000000000000000000000000000000000000000000602082015250565b7f4552433732313a206f776e657220717565727920666f72206e6f6e657869737460008201527f656e7420746f6b656e0000000000000000000000000000000000000000000000602082015250565b7f4552433732313a206d696e7420746f20746865207a65726f2061646472657373600082015250565b7f4552433732313a20617070726f76656420717565727920666f72206e6f6e657860008201527f697374656e7420746f6b656e0000000000000000000000000000000000000000602082015250565b7f2e6a736f6e000000000000000000000000000000000000000000000000000000600082015250565b7f4f776e61626c653a2063616c6c6572206973206e6f7420746865206f776e6572600082015250565b7f4552433732313a207472616e73666572206f6620746f6b656e2074686174206960008201527f73206e6f74206f776e0000000000000000000000000000000000000000000000602082015250565b7f4552433732314d657461646174613a2055524920717565727920666f72206e6f60008201527f6e6578697374656e7420746f6b656e0000000000000000000000000000000000602082015250565b7f4d696c6b546f6b656e3a2063616e6e6f74206f776e206d6f7265204d696c6b5460008201527f6f6b656e73000000000000000000000000000000000000000000000000000000602082015250565b7f4552433732313a20617070726f76616c20746f2063757272656e74206f776e6560008201527f7200000000000000000000000000000000000000000000000000000000000000602082015250565b7f4552433732313a207472616e736665722063616c6c6572206973206e6f74206f60008201527f776e6572206e6f7220617070726f766564000000000000000000000000000000602082015250565b7f455243373231456e756d657261626c653a20676c6f62616c20696e646578206f60008201527f7574206f6620626f756e64730000000000000000000000000000000000000000602082015250565b7f4d696c6b546f6b656e3a20737570706c79206361702072656163686564000000600082015250565b613b0c8161330c565b8114613b1757600080fd5b50565b613b238161331e565b8114613b2e57600080fd5b50565b613b3a8161332a565b8114613b4557600080fd5b50565b613b5181613376565b8114613b5c57600080fd5b5056fea2646970667358221220dbe0950bf099e536666cd3ce8bad254dd2e4c29e7991cf373b31caead08c2d1e64736f6c6343000804003368747470733a2f2f6d696c6b7974617374652e78797a2f6d696c6b746f6b656e2f68747470733a2f2f6d696c6b7974617374652e78797a2f6d696c6b746f6b656e2f706c616365686f6c6465722e6a736f6e",
  "linkReferences": {},
  "deployedLinkReferences": {}
}